{
  "contractName": "TestTokenSale",
  "abi": [
    {
      "constant": true,
      "inputs": [],
      "name": "tokenSold",
      "outputs": [
        {
          "name": "",
          "type": "uint256"
        }
      ],
      "payable": false,
      "stateMutability": "view",
      "type": "function",
      "signature": "0x519ee19e"
    },
    {
      "constant": true,
      "inputs": [],
      "name": "tokenContract",
      "outputs": [
        {
          "name": "",
          "type": "address"
        }
      ],
      "payable": false,
      "stateMutability": "view",
      "type": "function",
      "signature": "0x55a373d6"
    },
    {
      "constant": true,
      "inputs": [],
      "name": "tokenPrice",
      "outputs": [
        {
          "name": "",
          "type": "uint256"
        }
      ],
      "payable": false,
      "stateMutability": "view",
      "type": "function",
      "signature": "0x7ff9b596"
    },
    {
      "inputs": [
        {
          "name": "_tokenContract",
          "type": "address"
        },
        {
          "name": "_tokenPrice",
          "type": "uint256"
        }
      ],
      "payable": false,
      "stateMutability": "nonpayable",
      "type": "constructor",
      "signature": "constructor"
    },
    {
      "anonymous": false,
      "inputs": [
        {
          "indexed": false,
          "name": "_buyer",
          "type": "address"
        },
        {
          "indexed": false,
          "name": "_amount",
          "type": "uint256"
        }
      ],
      "name": "Sell",
      "type": "event",
      "signature": "0x5e5e995ce3133561afceaa51a9a154d5db228cd7525d34df5185582c18d3df09"
    },
    {
      "constant": false,
      "inputs": [
        {
          "name": "_numberOfTokens",
          "type": "uint256"
        }
      ],
      "name": "buyTokens",
      "outputs": [],
      "payable": true,
      "stateMutability": "payable",
      "type": "function",
      "signature": "0x3610724e"
    }
  ],
  "bytecode": "0x608060405234801561001057600080fd5b506040516040806103528339810180604052604081101561003057600080fd5b810190808051906020019092919080519060200190929190505050336000806101000a81548173ffffffffffffffffffffffffffffffffffffffff021916908373ffffffffffffffffffffffffffffffffffffffff16021790555081600160006101000a81548173ffffffffffffffffffffffffffffffffffffffff021916908373ffffffffffffffffffffffffffffffffffffffff16021790555080600281905550505061026e806100e46000396000f3fe608060405260043610610062576000357c0100000000000000000000000000000000000000000000000000000000900463ffffffff1680633610724e14610067578063519ee19e1461009557806355a373d6146100c05780637ff9b59614610117575b600080fd5b6100936004803603602081101561007d57600080fd5b8101908080359060200190929190505050610142565b005b3480156100a157600080fd5b506100aa6101e0565b6040518082815260200191505060405180910390f35b3480156100cc57600080fd5b506100d56101e6565b604051808273ffffffffffffffffffffffffffffffffffffffff1673ffffffffffffffffffffffffffffffffffffffff16815260200191505060405180910390f35b34801561012357600080fd5b5061012c61020c565b6040518082815260200191505060405180910390f35b600061015060025483610212565b905034811115151561016157600080fd5b816003600082825401925050819055507f5e5e995ce3133561afceaa51a9a154d5db228cd7525d34df5185582c18d3df093383604051808373ffffffffffffffffffffffffffffffffffffffff1673ffffffffffffffffffffffffffffffffffffffff1681526020018281526020019250505060405180910390a15050565b60035481565b600160009054906101000a900473ffffffffffffffffffffffffffffffffffffffff1681565b60025481565b6000808214806102315750828283850292508281151561022e57fe5b04145b151561023c57600080fd5b9291505056fea165627a7a7230582016c14076a47aa9cc444b5d564a2f469d4689c7a4411213bd6bb052021142868e0029",
  "source": "pragma solidity ^0.5.0;\r\n\r\nimport \"./TestToken.sol\";\r\n\r\ncontract TestTokenSale {\r\n    address admin;\r\n    TestToken public tokenContract;\r\n    uint256 public tokenPrice;\r\n    uint256 public tokenSold;\r\n\r\n    event Sell(\r\n        address _buyer, \r\n        uint256 _amount\r\n    );\r\n\r\n    constructor(TestToken _tokenContract, uint256 _tokenPrice) public{\r\n       admin = msg.sender;\r\n       tokenContract = _tokenContract;\r\n       tokenPrice = _tokenPrice;\r\n    } \r\n    function buyTokens(uint256 _numberOfTokens) public payable{\r\n        uint256 totalprice = multiply(tokenPrice, _numberOfTokens);\r\n\r\n        require(totalprice <= msg.value);\r\n        //require(tokenContract.balanceOf(address(this)) >= _numberOfTokens);\r\n\r\n        tokenSold += _numberOfTokens;\r\n\r\n        emit Sell(msg.sender, _numberOfTokens);\r\n    }\r\n\r\n    function multiply(uint x, uint y) internal pure returns (uint z){\r\n        require(y == 0 || (z = x * y ) / y ==x);\r\n    }\r\n}",
  "sourcePath": "C:/Users/tsaik/Desktop/BC/token_sale/src/contracts/TestTokenSale.sol",
  "compiler": {
    "name": "solc",
    "version": "0.5.0+commit.1d4f565a.Emscripten.clang"
  },
  "schemaVersion": "3.0.2",
  "updatedAt": "2021-09-01T08:02:51.290Z",
  "devdoc": {
    "methods": {}
  },
  "userdoc": {
    "methods": {}
  }
}